:100000000C943C000C9459000C9459000C94590029
:100010000C9459000C9459000C9459000C945900FC
:100020000C9459000C9459000C9459000C945900EC
:100030000C9459000C9459000C9459000C945900DC
:100040000C9459000C9459000C9459000C945900CC
:100050000C9459000C9459000C9459000C945900BC
:100060000C9459000C94590059065C065F06620610
:10007000650668066B066E0611241FBECFEFD8E03A
:10008000DEBFCDBF14E0A0E0B1E0EEEEF4E102C0CF
:1000900005900D92AC32B107D9F724E0ACE2B4E0A0
:1000A00001C01D92A633B207E1F70E9413070C941A
:1000B000750A0C940000CF93C82F8A3019F48DE094
:1000C0000E945B008091C00085FFFCCFC093C600FA
:1000D00080E090E0CF9108958091C00087FFFCCF31
:1000E0008091C60090E008951092C50087E6809345
:1000F000C400E0ECF0E080818D7F808386E0809317
:10010000C20088E18093C100E0E3F4E080E091E088
:1001100093838283918380830895CF92DF92EF92BD
:10012000FF926B017C0120E034E244EF56E40E9430
:10013000D608181654F420E034E244EF5AE4C7011C
:10014000B6010E94B4071816C4F420E034E244EF6C
:1001500055E4C701B6010E94D60818169CF02BE79B
:1001600034E144EF51E4C701B6010E94D6081816E5
:1001700074F060E070E0CB010EC060E070E080E8F9
:100180009FE309C060E070E080E893E404C060E0B1
:1001900070E080E894E4FF90EF90DF90CF900895B6
:1001A000CF92DF92EF92FF926B017C0120E034E26C
:1001B00044EF56E40E94D608181654F420E034E2C6
:1001C00044EF5AE4C701B6010E94B4071816B4F40C
:1001D00020E034E244EF55E4C701B6010E94D6089E
:1001E000181674F02BE734E144EF51E4C701B6016F
:1001F0000E94D608181634F080E005C081E003C0E4
:1002000084E001C085E0FF90EF90DF90CF900895EB
:10021000CF92DF92EF92FF926B017C0120E034E2FB
:1002200044EF56E40E94D608181654F420E034E255
:1002300044EF5AE4C701B6010E94B4071816B4F49B
:1002400020E034E244EF55E4C701B6010E94D6082D
:10025000181674F02BE734E144EF51E4C701B601FE
:100260000E94D608181634F080E005C081E003C073
:1002700086E001C087E0FF90EF90DF90CF90089577
:10028000CF92DF92EF92FF926B017C010E948D0072
:100290009B01AC010E944807A70196010E94DB0860
:1002A0009B01AC0160E074E284E79BE40E94B90723
:1002B00020E030E040E85FE30E9447070E942B08FF
:1002C000CB01FF90EF90DF90CF9008956F927F92D7
:1002D0009F92AF92BF92CF92DF92EF92FF920F93D5
:1002E0001F93CF93DF931F92CDB7DEB7282F6A01FC
:1002F0007B0129830E94DB032981022F10E06FE03C
:10030000269FA0011124CA0184579E4F3C01DC01A5
:1003100017968D919C911897892B99F461E070E064
:10032000822F0F90DF91CF911F910F91FF90EF904F
:10033000DF90CF90BF90AF909F907F906F900C9484
:100340005E04C701B60129830E94D000982E29813E
:10035000882309F44CC1273030F4253008F077C0E9
:10036000233051F044C1293008F441C12B3008F446
:10037000CEC02B3009F03BC18FE0809F9001819F60
:10038000300D1124F901E457FE4F3F01A384B484DA
:10039000C701B6010E944001D5018C9389E0809F7E
:1003A000F001819FF00D1124E25FFE4F2181D30106
:1003B00017960D911C911897D8014C9181E090E00F
:1003C000BC0102C0660F771F2A95E2F79B01242B20
:1003D0002C932081D30117960D911C911897D80169
:1003E0004C91BC0102C0660F771F2A95E2F79B0172
:1003F0002095309524232C932381D30117960D91BA
:100400001C911897D8014C91BC0102C0660F771F50
:100410002A95E2F79B01242B2C933481D301179664
:10042000ED91FC911897208102C0880F991F3A9591
:10043000E2F7809590958223808319960D911C9107
:100440001A97C701B6010E940801F801CFC0D30175
:100450001B96AD90BC901C97C701B6010E9440014D
:10046000F501808389E0809FF001819FF00D1124C8
:10047000E25FFE4F8181D30117960D911C91189771
:10048000D8014C9121E030E0B90102C0660F771F1E
:100490008A95E2F7CB01842B8C938081D301179648
:1004A0000D911C911897D8014C91B90102C0660FAB
:1004B000771F8A95E2F7CB018095909584238C93E2
:1004C0008381D30117960D911C911897D8014C91F7
:1004D000B90102C0660F771F8A95E2F7CB01842B22
:1004E0008C939481D3011796ED91FC91189780819C
:1004F00002C0220F331F9A95E2F7209530952823EA
:1005000020831996ED91FC911A97908270C0F301A7
:10051000A384B484C701B6010E944001D5018C9325
:10052000D3011996ED91FC911A97908289E0809FF2
:10053000F001819FF00D1124E25FFE4F218117969B
:100540000D911C911897D8014C9181E090E0BC016D
:1005500002C0660F771F2A95E2F79B012095309520
:1005600024232C932081D30117960D911C91189769
:10057000D8014C91BC0102C0660F771F2A95E2F7A3
:100580009B012095309524232C932281D301199629
:100590000D911C911A97D8014C91BC0102C0660FB5
:1005A000771F2A95E2F79B01242B2C932381D301FB
:1005B00017960D911C911897D8014C91BC0102C05F
:1005C000660F771F2A95E2F79B01242B2C93348129
:1005D000D3011796ED91FC911897208102C0880FE6
:1005E000991F3A95E2F780959095822380830F902A
:1005F000DF91CF911F910F91FF90EF90DF90CF90FF
:10060000BF90AF909F907F906F900895FF920F934F
:100610001F93CF93DF93C82FF62E0E94DB030C2F7E
:1006200010E08FE0C89FF0011124E457FE4F87814E
:100630009085892B59F4D0E88081DF1518F461E0AA
:1006400070E002C060E070E00E945E04C73030F4E9
:10065000C53060F4C33009F092C008C0C93008F456
:100660008EC0CB3040F1CB3009F089C089E0809F4B
:10067000D001819FB00D1124A25FBE4F2C918FE05D
:10068000809FF001819FF00D1124E457FE4F4781B8
:100690005085EA01688181E090E0EC0102C0CC0F56
:1006A000DD1F2A95E2F79E01262BEA012883119689
:1006B0002C91119737C089E0809FD001819FB00DA8
:1006C0001124A25FBE4F12962C9112978FE0809F4B
:1006D000F001819FF00D1124E457FE4F41855285B2
:1006E000EA01688181E090E0EC0102C0CC0FDD1FDF
:1006F0002A95E2F79E01262BEA01288311962C9178
:10070000119747815085EA016881EC0102C0CC0F46
:10071000DD1F2A95E2F79E01209530952623EA01F8
:1007200028832C9147815085EA016881EC0102C041
:10073000CC0FDD1F2A95E2F79E01262BEA012883C4
:1007400013962C91139747815085EA016881EC013B
:1007500002C0CC0FDD1F2A95E2F79E01209530954F
:100760002623EA01288314963C910780F085E02D2A
:10077000208101C0880F3A95EAF7822B80838FE0B1
:10078000809FF001819FF00D1124E457FE4FA18559
:10079000B28582E08C93A585B685109711F0FC9206
:1007A00004C00384F485E02DF082DF91CF911F9186
:1007B0000F91FF9008952FE0829FC0011124FC014A
:1007C000E457FE4F30810380F481E02D208181E0E9
:1007D00090E001C0880F3A95EAF7822B8083089554
:1007E0002FE0829FC0011124FC01E457FE4F3081AD
:1007F0000180F281E02D208181E090E001C0880F2E
:100800003A95EAF7822B808308952FE0829FC001FA
:100810001124FC01E457FE4F30810180F281E02D6C
:10082000208181E090E001C0880F3A95EAF78227A5
:10083000808308952FE0829FC0011124FC01E457BA
:10084000FE4FA581B6818C91208190E002C09595E4
:1008500087952A95E2F78095817008952FE0829F11
:10086000C0011124FC01E457FE4F30810380F48164
:10087000E02D208181E090E002C0880F991F3A9519
:10088000E2F7809590958223808308952FE0829FE0
:10089000C0011124FC01E457FE4F30810180F28138
:1008A000E02D208181E090E002C0880F991F3A95E9
:1008B000E2F78095909582238083089590E02FE061
:1008C000289FF001299FF00D1124E457FE4F30813D
:1008D0000180F281E02D208181E090E002C0880F4C
:1008E000991F3A95E2F7672B11F0822B03C0809590
:1008F000909582238083089524E02A95F1F70000E3
:10090000089525E136EC3A95F1F72A95E1F7089537
:10091000CF92DF92EF92FF92CF93DF9300D000D07F
:10092000CDB7DEB7C12CD12C7601C616D706E806A6
:10093000F90681F069837A838B839C830E947C040F
:100940002FEFC21AD20AE20AF20A9C818B817A81C5
:100950006981EBCF0F900F900F900F90DF91CF91A7
:10096000FF90EF90DF90CF900895CF92DF92EF92BB
:10097000FF92CF93DF9300D000D0CDB7DEB7C12C6C
:10098000D12C7601C616D706E806F90681F06983F0
:100990007A838B839C830E9481042FEFC21AD20A30
:1009A000E20AF20A9C818B817A816981EBCF0F90F8
:1009B0000F900F900F90DF91CF91FF90EF90DF900D
:1009C000CF9008950F931F93CF93DF93182F092F84
:1009D00084E090E00E944809EC0118830983812F8C
:1009E0000E94DB0381E090E09B838A83812F0E9439
:1009F000F003CE01DF91CF911F910F91089521E077
:100A000030E0FC013383228380810C94F003FC01ED
:100A10001382128280810C944604FC01228133816E
:100A2000232B11F40C94FF040C940705CF92DF9252
:100A3000EF92FF92CF93DF93EC016A017B010E945A
:100A4000FF04C701B6010E94B504CE010E9407054C
:100A5000C701B601DF91CF91FF90EF90DF90CF906B
:100A60000C94B5040C94DD09CF93DF93C82FD62FD7
:100A7000909181009260909381000E94DB038D2F02
:100A80000E942E0461E070E08C2F0E945E0485E3DA
:100A90008A95F1F700009FE09C9FF0011124E45734
:100AA000FE4F40810180F281E02D808121E030E025
:100AB00002C0220F331F4A95E2F720953095282374
:100AC00020836D2F70E0969FF001979FF00D112409
:100AD000E457FE4FA581B6818C91208190E002C041
:100AE000959587952A95E2F780FFF6CF10928500BD
:100AF000109284008FE0869FF001879FF00D1124F3
:100B0000E457FE4F8C91208190E002C09595879527
:100B10002A95E2F780FDF6CF8091840090918500C0
:100B200064E770E00E942D07CB01DF91CF9108951B
:100B30008F929F92AF92BF92CF92DF92EF92FF92ED
:100B40000F931F93CF93DF93CDB7DEB7B82ED62E7A
:100B5000F42E122F8DE090E00E9448094C01FC0118
:100B6000B0828B2D0E94DB038B2D0E94F003F401D9
:100B7000D1828D2D0E94DB038D2D0E94F003F401A4
:100B8000F2828F2D0E94DB038F2D0E94F003F4016F
:100B90001383812F0E94DB03812F0E94F003F40155
:100BA0000483802F0E94DB03802F0E94F003F40156
:100BB000E5828E2D0E94DB038E2D0E94F003F4014E
:100BC000C6828C2D0E94DB038C2D0E94F003F40161
:100BD000A7828A2D0E94DB038A2D0E94F003F40174
:100BE00014868F859889A989BA8980879187A28779
:100BF000B387C401DF91CF911F910F91FF90EF90C8
:100C0000DF90CF90BF90AF909F908F900895FC01A0
:100C100064870895FC0160857185828593850C94B5
:100C2000B504CF93DF93EC0188810E94F0038981A2
:100C30000E94F0038A810E94F0038B810E94F003DE
:100C40008C810E94F0038D810E94F0038E810E94AE
:100C5000F0038F81DF91CF910C94F003EF92FF921C
:100C60000F931F93CF93DF938C016B3514F0665075
:100C700002C06A330CF06750C0EDC60FEE24E39457
:100C8000F12CCC0FDD0BC25ADD4FE881F981808158
:100C900090E08E159F0554F1EE0DFF1DE0818E2F23
:100CA00090E088309105F0F4FC01EC5CFF4F0C946F
:100CB0004107F801808114C0F801818111C0F80159
:100CC00082810EC0F80183810BC0F801848108C0C5
:100CD000F801858105C0F801868102C0F80187818D
:100CE0000E944604FFEFEF1AFF0ACFCFF80180857C
:100CF0009185A285B385892B8A2B8B2B61F0C80146
:100D00000E940A06C801DF91CF911F910F91FF90B9
:100D1000EF900C941106DF91CF911F910F91FF90EE
:100D2000EF900895EF92FF921F93CF93DF93EC0122
:100D30007B01672BB9F010E0F701E10FF11D608135
:100D4000662369F0CE01603231F40E941106CE01B3
:100D50000E940A0602C00E942E061F5FEDCF8C85FE
:100D60008111E9CFDF91CF911F91FF90EF9008950E
:100D70000C94DD091F93CF93DF93182F85E090E04B
:100D80000E944809EC011883812F0E942E04812FB4
:100D90000E94F00381E090E09A838983CE01DF9185
:100DA000CF911F910895FC01748363830895FC0122
:100DB000728361830895CF93DF93EC012FEF89EF66
:100DC00090E0215080409040E1F700C00000888111
:100DD0000E941A048823B9F089819A81892B49F4E9
:100DE000EB81FC81099588810E941A048111FBCF57
:100DF0000AC088810E941A048111FBCFEB81FC811B
:100E0000DF91CF910994DF91CF9108952FEF39EFC2
:100E100040E0215030404040E1F700C00000FC01BC
:100E200080810C941A0488E00E94DB0364EF71E077
:100E300080E090E00E94B50461E070E088E00E94EC
:100E40005E0464EF71E080E090E00E94B50460E031
:100E500070E088E00E945E04E9CFAA1BBB1B51E151
:100E600007C0AA1FBB1FA617B70710F0A61BB70B1A
:100E7000881F991F5A95A9F780959095BC01CD01BF
:100E80000895EE0FFF1F0590F491E02D099450583E
:100E9000BB27AA270E945F070C949C080E948E081B
:100EA00038F00E94950820F039F49F3F19F426F499
:100EB0000C948B080EF4E095E7FB0C948508E92F61
:100EC0000E94AD0858F3BA176207730784079507A5
:100ED00020F079F4A6F50C94CF080EF4E0950B2ED3
:100EE000BA2FA02D0B01B90190010C01CA01A0017C
:100EF0001124FF27591B99F0593F50F4503E68F1D7
:100F00001A16F040A22F232F342F4427585FF3CF17
:100F1000469537952795A795F0405395C9F77EF4E8
:100F20001F16BA0B620B730B840BBAF09150A1F031
:100F3000FF0FBB1F661F771F881FC2F70EC0BA0FB7
:100F4000621F731F841F48F4879577956795B7953F
:100F5000F7959E3F08F0B0CF9395880F08F099273A
:100F6000EE0F9795879508950E94610808F481E037
:100F700008950E94CD070C949C080E94950858F093
:100F80000E948E0840F029F45F3F29F00C948508F8
:100F900051110C94D0080C948B080E94AD0868F392
:100FA0009923B1F3552391F3951B550BBB27AA2722
:100FB00062177307840738F09F5F5F4F220F331F5C
:100FC000441FAA1FA9F335D00E2E3AF0E0E832D024
:100FD00091505040E695001CCAF72BD0FE2F29D027
:100FE000660F771F881FBB1F261737074807AB07F9
:100FF000B0E809F0BB0B802DBF01FF2793585F4F6E
:101000003AF09E3F510578F00C9485080C94D00876
:101010005F3FE4F3983ED4F3869577956795B7954F
:10102000F7959F5FC9F7880F911D9695879597F95A
:101030000895E1E0660F771F881FBB1F62177307D3
:101040008407BA0720F0621B730B840BBA0BEE1FE8
:1010500088F7E09508950E9432086894B1110C94C5
:10106000D00808950E94B50888F09F5798F0B92FCE
:101070009927B751B0F0E1F0660F771F881F991FCD
:101080001AF0BA95C9F714C0B13091F00E94CF0898
:10109000B1E008950C94CF08672F782F8827B85FA8
:1010A00039F0B93FCCF3869577956795B395D9F725
:1010B0003EF490958095709561957F4F8F4F9F4F2F
:1010C0000895990F0008550FAA0BE0E8FEEF1616D9
:1010D0001706E807F907C0F012161306E407F5072C
:1010E00098F0621B730B840B950B39F40A2661F0A0
:1010F000232B242B252B21F408950A2609F4A14043
:10110000A6958FEF811D811D089597F99F6780E84F
:1011100070E060E008959FEF80EC089500240A9449
:101120001616170618060906089500240A941216C2
:101130001306140605060895092E0394000C11F4F5
:10114000882352F0BB0F40F4BF2B11F460FF04C0A2
:101150006F5F7F4F8F4F9F4F089557FD9058440FFB
:10116000551F59F05F3F71F04795880F97FB991F06
:1011700061F09F3F79F087950895121613061406C3
:10118000551FF2CF4695F1DF08C016161706180650
:10119000991FF1CF86957105610508940895E8942B
:1011A000BB2766277727CB0197F908950E9461082E
:1011B00008F48FEF08950E94EE080C949C080E949A
:1011C0008E0838F00E94950820F0952311F00C94B9
:1011D00085080C948B0811240C94D0080E94AD084B
:1011E00070F3959FC1F3950F50E0551F629FF0017A
:1011F000729FBB27F00DB11D639FAA27F00DB11D93
:10120000AA1F649F6627B00DA11D661F829F22271B
:10121000B00DA11D621F739FB00DA11D621F839FA2
:10122000A00D611D221F749F3327A00D611D231F78
:10123000849F600D211D822F762F6A2F11249F57C6
:1012400050409AF0F1F088234AF0EE0FFF1FBB1FC9
:10125000661F771F881F91505040A9F79E3F510588
:1012600080F00C9485080C94D0085F3FE4F3983E1E
:10127000D4F3869577956795B795F795E7959F5F32
:10128000C1F7FE2B880F911D9695879597F90895C4
:10129000CF93DF938230910510F482E090E0E091EB
:1012A0002E04F0912F0420E030E0C0E0D0E0309731
:1012B00011F14081518148175907C0F0481759076B
:1012C00061F482819381209719F09B838A832BC0DC
:1012D00090932F0480932E0426C02115310519F018
:1012E0004217530718F49A01BE01DF01EF01028093
:1012F000F381E02DDCCF2115310509F1281B390BD5
:101300002430310590F412968D919C9113976115BC
:10131000710521F0FB019383828304C090932F0415
:1013200080932E04FD01329644C0FD01E20FF31FAD
:1013300081939193225031092D933C933AC020918F
:101340002C0430912D04232B41F42091270430915B
:10135000280430932D0420932C04209125043091EF
:1013600026042115310541F42DB73EB740912904DB
:1013700050912A04241B350BE0912C04F0912D048C
:10138000E217F307A0F42E1B3F0B2817390778F05C
:10139000AC014E5F5F4F2417350748F04E0F5F1FBB
:1013A00050932D0440932C048193919302C0E0E06C
:1013B000F0E0CF01DF91CF9108950F931F93CF936A
:1013C000DF93009709F48CC0FC01329713821282DC
:1013D00000912E0410912F040115110581F4208134
:1013E0003181820F931F20912C0430912D042817F6
:1013F000390779F5F0932D04E0932C0471C0D801DE
:1014000040E050E0AE17BF0750F412962D913C918A
:101410001397AD012115310509F1D901F3CF9D01D4
:10142000DA013383228360817181860F971F8217CF
:10143000930769F4EC0128813981260F371F2E5F4D
:101440003F4F318320838A819B8193838283452B05
:1014500029F4F0932F04E0932E0442C01396FC93DA
:10146000EE931297ED01499159919E01240F351F7A
:10147000E217F30771F480819181840F951F029622
:1014800011969C938E938281938113969C938E9355
:101490001297E0E0F0E0D80112968D919C9113979D
:1014A000009719F0F8018C01F6CF8D919C9198016D
:1014B0002E5F3F4F820F931F20912C0430912D04FB
:1014C0002817390769F4309729F410922F041092E5
:1014D0002E0402C01382128210932D0400932C0458
:0E14E000DF91CF911F910F910895F894FFCFE7
:1014EE0000000003000000005B006C000000000024
:1014FE0000000000000000000000000000000000DE
:10150E0000000000000000000000010304050001BF
:10151E0002000000000000000000000001030405AE
:10152E000001020000010306070001020000000096
:10153E00000000000000000000000000000000009D
:10154E000103060700010204000103040500010265
:10155E000400010306070001020000000000000065
:10156E00000000000000000000000000002B002A18
:10157E000029000000000000000000012B002A00DE
:10158E0029000000000000000000022B002A0029A4
:10159E00000000000000000000032B002A002900BC
:1015AE00B000B100B300B400042B002A00290000E3
:1015BE0000000000000000052B002A002900440056
:1015CE00450047004800062B002A0029004400452C
:1015DE000047000000072B002A0029000000000031
:1015EE000000000000250024002300000000000081
:1015FE0000000001250024002300800081008800E7
:10160E000000022500240023008000810088008A4B
:10161E000003250024002300B000B100B300000039
:10162E000425002400230000000000000000000537
:10163E0025002400230000000000000000001E040E
:10164E001B0415040F040A040404FD03F903F1033B
:10165E00EA03E303DD03D803D203CC03C703C103BC
:10166E00BB03B803B303AD03A903A5039F039803FC
:10167E0092038C03870381037C03760370036C0350
:10168E00660360035A0353034D03490343033C03AC
:10169E00370330032B032903260320031D031A03EC
:1016AE00160311030B0305030203FC02F702F302F8
:1016BE00EF02EC02E602E002DA0205000103040684
:1016CE0005010203050605010204050602020403D4
:1016DE0002030403020304040304050605000203C7
:1016EE0005060204060500010205060500010405B3
:1016FE0006040203040603020406020204020405A1
:10170E000500020405060202030104040204050694
:10171E000600010203050604000405060600010387
:10172E00040506050102030406030304060502036D
:10173E000405060600010203040605000103040663
:10174E000501020305060501020405060301030552
:10175E000501020304050501020304050403040543
:10176E000605000203050604000104050500010339
:10177E000506050001040506060001020304050521
:10178E000001020405030002040303040505000220
:10179E000405060401020304020405050102040502
:1017AE0006050002030405040004050605000304F3
:1017BE0005060501020304060400030405050203E1
:1017CE0004050606000102040506060001020305D3
:1017DE0006070001020304050603000102060002CB
:1017EE0003040506050002030506040102050605AD
:1017FE0000010203060500010304060201020600B1
:0C180E0001020304050000360420000065
:00000001FF
