:100000000C943C000C9459000C9459000C94590029
:100010000C9459000C9459000C9459000C945900FC
:100020000C9459000C9459000C9459000C945900EC
:100030000C9459000C9459000C9459000C945900DC
:100040000C9459000C9459000C9459000C945900CC
:100050000C9459000C9459000C9459000C945900BC
:100060000C9459000C945900B703BA03BD03C003A4
:10007000C303C603C903CC0311241FBECFEFD8E0CE
:10008000DEBFCDBF14E0A0E0B1E0EAE8FFE002C0CF
:1000900005900D92A031B107D9F724E0A0E1B4E0BA
:1000A00001C01D92A431B207E1F70E9480040C94B4
:1000B000C3070C940000CF92DF92EF92FF926B0186
:1000C0007C0120E034E244EF56E40E942406181636
:1000D00054F420E034E244EF5AE4C701B6010E9430
:1000E00002051816C4F420E034E244EF55E4C701D9
:1000F000B6010E94240618169CF02BE734E144EF69
:1001000051E4C701B6010E942406181674F060E09D
:1001100070E0CB010EC060E070E080E89FE309C0B2
:1001200060E070E080E893E404C060E070E080E8A4
:1001300094E4FF90EF90DF90CF900895CF92DF92FC
:10014000EF92FF926B017C0120E034E244EF56E431
:100150000E942406181654F420E034E244EF5AE4D6
:10016000C701B6010E9402051816B4F420E034E27B
:1001700044EF55E4C701B6010E942406181674F036
:100180002BE734E144EF51E4C701B6010E94240695
:10019000181634F080E005C081E003C084E001C09F
:1001A00085E0FF90EF90DF90CF900895CF92DF929F
:1001B000EF92FF926B017C010E945B009B01AC01FE
:1001C0000E949604A70196010E9429069B01AC019A
:1001D00060E074E284E79BE40E94070520E030E0E1
:1001E00040E85FE30E9495040E947905CB01FF90EF
:1001F000EF90DF90CF9008958F929F92AF92BF9231
:10020000CF92DF92EF92FF921F93CF93DF93182F3D
:100210004A015B010E94FF01E12EF12C8FE0189F43
:10022000E0011124C059DE4F8F819885892B81F41C
:1002300061E070E0812FDF91CF911F91FF90EF90EF
:10024000DF90CF90BF90AF909F908F900C948202E0
:10025000C501B4010E949E00182F882309F446C0EE
:10026000CB84DC84C501B4010E94D600F6018083F2
:10027000F70183E0EE0FFF1F8A95E1F7E050FF4F93
:100280009181AF81B8858C9121E030E0A90101C056
:10029000440F9A95EAF7482B4C939081AF81B8852B
:1002A0008C91A90102C0440F551F9A95E2F7409521
:1002B000509548234C939381AF81B8858C91A901C7
:1002C00001C0440F9A95EAF7482B4C939481EF8133
:1002D000F885808102C0220F331F9A95E2F720959E
:1002E000309528232083E985FA851083DF91CF910B
:1002F0001F91FF90EF90DF90CF90BF90AF909F90B5
:100300008F900895EF92FF921F93CF93DF93162F54
:10031000E82EF12C6FE0869FE0011124C059DE4FDA
:1003200088810E94FF018F819885892B51F48881F3
:10033000113818F061E070E002C060E070E00E94E7
:100340008202D70183E0AA0FBB1F8A95E1F7A05074
:10035000BF4F2C918FE08E9DF0018F9DF00D1124E9
:10036000E059FE4FC781D085488181E090E0BC0113
:1003700002C0660F771F2A95E2F79B01242B288382
:1003800011962C911197C781D0854881BC0102C07C
:10039000660F771F2A95E2F79B01242B288313967B
:1003A0002C911397C781D0854881BC0102C0660F8C
:1003B000771F2A95E2F79B01209530952423288307
:1003C00014963C91A781B0852C9101C0880F3A9575
:1003D000EAF7822B8C93A185B28582E08C93A58568
:1003E000B685109711F01C9304C00384F485E02DAA
:1003F0001083DF91CF911F91FF90EF9008952FE030
:10040000829FC0011124FC01E059FE4F308103801E
:10041000F481E02D208181E090E001C0880F3A95C1
:10042000EAF7822B808308952FE0829FC001112478
:10043000FC01E059FE4F30810180F281E02D2081E6
:1004400081E090E001C0880F3A95EAF7822B808323
:1004500008952FE0829FC0011124FC01E059FE4F56
:1004600030810180F281E02D208181E090E001C0A7
:10047000880F3A95EAF78227808308952FE0829FBC
:10048000C0011124FC01E059FE4FA581B6818C9179
:10049000208190E002C0959587952A95E2F7809596
:1004A000817008952FE0829FC0011124FC01E05962
:1004B000FE4F30810380F481E02D208181E090E0C7
:1004C00002C0880F991F3A95E2F780959095822394
:1004D000808308952FE0829FC0011124FC01E05920
:1004E000FE4F30810180F281E02D208181E090E09B
:1004F00002C0880F991F3A95E2F780959095822364
:100500008083089590E02FE0289FF001299FF00D4F
:100510001124E059FE4F30810180F281E02D2081CD
:1005200081E090E002C0880F991F3A95E2F7672BAF
:1005300011F0822B03C080959095822380830895CB
:100540000F931F93CF93DF93182F092F84E090E030
:100550000E949606EC0118830983812F0E94FF01F7
:1005600081E090E09B838A83812F0E941402CE0158
:10057000DF91CF911F910F91089521E030E0FC01B0
:100580003383228380810C941402FC011382128233
:1005900080810C946A02FC0122813381232B11F4A7
:1005A0000C94BD020C94C502CF93DF93EC010E9422
:1005B000BD022FEF83ED90E3215080409040E1F7A2
:1005C00000C00000CE010E94C5022FEF83ED90E332
:1005D000215080409040E1F700C00000DF91CF91B2
:1005E00008950C942B078F929F92AF92BF92CF9257
:1005F000DF92EF92FF920F931F93CF93DF93CDB7CC
:10060000DEB7B82ED62EF42E122F8DE090E00E9489
:1006100096064C01FC01B0828B2D0E94FF018B2DB0
:100620000E941402F401D1828D2D0E94FF018D2DB4
:100630000E941402F401F2828F2D0E94FF018F2D7F
:100640000E941402F4011383812F0E94FF01812F65
:100650000E941402F4010483802F0E94FF01802F66
:100660000E941402F401E5828E2D0E94FF018E2D5E
:100670000E941402F401C6828C2D0E94FF018C2D71
:100680000E941402F401A7828A2D0E94FF018A2D84
:100690000E941402F40114868F859889A989BA8969
:1006A00080879187A287B387C401DF91CF911F9183
:1006B0000F91FF90EF90DF90CF90BF90AF909F9001
:1006C0008F900895FC01648708952FEF89E698E1E3
:1006D000215080409040E1F700C000000895CF9382
:1006E000DF93EC0188810E94140289810E94140228
:1006F0008A810E9414028B810E9414028C810E94C4
:1007000014028D810E9414028E810E9414028F8136
:10071000DF91CF910C941402EF92FF920F931F93ED
:10072000CF93DF938C016B3514F0665002C06A33AF
:100730000CF06750C0EDC60FEE24E394F12CCC0F03
:10074000DD0BCE5BDD4FE881F981808190E08E1575
:100750009F0554F1EE0DFF1DE0818E2F90E0883053
:100760009105F0F4FC01EC5CFF4F0C948F04F80150
:10077000808114C0F801818111C0F80182810EC00E
:10078000F80183810BC0F801848108C0F8018581DC
:1007900005C0F801868102C0F80187810E946A02C3
:1007A000FFEFEF1AFF0ACFCF20E030E0A901F801F8
:1007B00060857185828593850E942406181694F4BD
:1007C000FFEF29E688E1F15020408040E1F700C0CA
:1007D0000000C801DF91CF911F910F91FF90EF9022
:1007E0000C946F03DF91CF911F910F91FF90EF90C9
:1007F0000895EF92FF921F93CF93DF93EC017B015B
:10080000672BE9F010E0F701E10FF11D608166232D
:1008100099F0CE01603261F40E946F032FEF89E6F8
:1008200098E1215080409040E1F700C0000002C0F4
:100830000E948C031F5FE7CF8C858111E3CFDF918E
:10084000CF911F91FF90EF9008950C942B071F9369
:10085000CF93DF93182F85E090E00E949606EC017D
:100860001883812F0E945202812F0E94140281E07E
:1008700090E09A838983CE01DF91CF911F910895F3
:10088000FC01748363830895FC017283618308957E
:10089000CF93DF93EC012FEF89EF90E02150804060
:1008A0009040E1F700C0000088810E943E0288234A
:1008B000B9F089819A81892B49F4EB81FC810995F2
:1008C00088810E943E028111FBCF0AC088810E946C
:1008D0003E028111FBCFEB81FC81DF91CF91099426
:1008E000DF91CF9108952FEF39EF40E02150304054
:1008F0004040E1F700C00000FC0180810C943E0202
:1009000088E090E00E94A002EC010E94C50240E055
:1009100050E06AE774E4CE010E94D402F8CFEE0FF3
:10092000FF1F0590F491E02D09945058BB27AA278A
:100930000E94AD040C94EA050E94DC0538F00E9488
:10094000E30520F039F49F3F19F426F40C94D905FF
:100950000EF4E095E7FB0C94D305E92F0E94FB050C
:1009600058F3BA17620773078407950720F079F4E4
:10097000A6F50C941D060EF4E0950B2EBA2FA02DB3
:100980000B01B90190010C01CA01A0011124FF273C
:10099000591B99F0593F50F4503E68F11A16F04037
:1009A000A22F232F342F4427585FF3CF4695379536
:1009B0002795A795F0405395C9F77EF41F16BA0BFB
:1009C000620B730B840BBAF09150A1F0FF0FBB1FA9
:1009D000661F771F881FC2F70EC0BA0F621F731FF2
:1009E000841F48F4879577956795B795F7959E3F4F
:1009F00008F0B0CF9395880F08F09927EE0F9795E0
:100A0000879508950E94AF0508F481E008950E943B
:100A10001B050C94EA050E94E30558F00E94DC05D2
:100A200040F029F45F3F29F00C94D30551110C9448
:100A30001E060C94D9050E94FB0568F39923B1F3B7
:100A4000552391F3951B550BBB27AA2762177307F4
:100A5000840738F09F5F5F4F220F331F441FAA1F88
:100A6000A9F335D00E2E3AF0E0E832D09150504044
:100A7000E695001CCAF72BD0FE2F29D0660F771FF2
:100A8000881FBB1F261737074807AB07B0E809F0D8
:100A9000BB0B802DBF01FF2793585F4F3AF09E3F5D
:100AA000510578F00C94D3050C941E065F3FE4F3D7
:100AB000983ED4F3869577956795B795F7959F5FA0
:100AC000C9F7880F911D9695879597F90895E1E0EC
:100AD000660F771F881FBB1F621773078407BA074B
:100AE00020F0621B730B840BBA0BEE1F88F7E095A6
:100AF00008950E9480056894B1110C941E06089513
:100B00000E94030688F09F5798F0B92F9927B75194
:100B1000B0F0E1F0660F771F881F991F1AF0BA95A1
:100B2000C9F714C0B13091F00E941D06B1E00895DC
:100B30000C941D06672F782F8827B85F39F0B93FCE
:100B4000CCF3869577956795B395D9F73EF4909554
:100B50008095709561957F4F8F4F9F4F0895990FA6
:100B60000008550FAA0BE0E8FEEF16161706E80777
:100B7000F907C0F012161306E407F50798F0621B98
:100B8000730B840B950B39F40A2661F0232B242B6D
:100B9000252B21F408950A2609F4A140A6958FEF8C
:100BA000811D811D089597F99F6780E870E060E0DE
:100BB00008959FEF80EC089500240A9416161706F6
:100BC00018060906089500240A941216130614063E
:100BD00005060895092E0394000C11F4882352F0A1
:100BE000BB0F40F4BF2B11F460FF04C06F5F7F4F59
:100BF0008F4F9F4F089557FD9058440F551F59F040
:100C00005F3F71F04795880F97FB991F61F09F3FF9
:100C100079F087950895121613061406551FF2CF22
:100C20004695F1DF08C0161617061806991FF1CF72
:100C300086957105610508940895E894BB27662799
:100C40007727CB0197F908950E94AF0508F48FEF3D
:100C500008950E943C060C94EA050E94DC0538F0D9
:100C60000E94E30520F0952311F00C94D3050C9419
:100C7000D90511240C941E060E94FB0570F3959F64
:100C8000C1F3950F50E0551F629FF001729FBB2783
:100C9000F00DB11D639FAA27F00DB11DAA1F649F1F
:100CA0006627B00DA11D661F829F2227B00DA11DD2
:100CB000621F739FB00DA11D621F839FA00D611D58
:100CC000221F749F3327A00D611D231F849F600D79
:100CD000211D822F762F6A2F11249F5750409AF0A2
:100CE000F1F088234AF0EE0FFF1FBB1F661F771F2E
:100CF000881F91505040A9F79E3F510580F00C94F9
:100D0000D3050C941E065F3FE4F3983ED4F386951A
:100D100077956795B795F795E7959F5FC1F7FE2B98
:100D2000880F911D9695879597F90895CF93DF9336
:100D30008230910510F482E090E0E0911204F0918D
:100D4000130420E030E0C0E0D0E0309711F14081A2
:100D5000518148175907C0F04817590761F482813B
:100D60009381209719F09B838A832BC0909313045F
:100D70008093120426C02115310519F0421753073C
:100D800018F49A01BE01DF01EF010280F381E02D2A
:100D9000DCCF2115310509F1281B390B2430310531
:100DA00090F412968D919C9113976115710521F025
:100DB000FB019383828304C09093130480931204F5
:100DC000FD01329644C0FD01E20FF31F8193919320
:100DD000225031092D933C933AC020911004309158
:100DE0001104232B41F420910B0430910C04309317
:100DF0001104209310042091090430910A04211554
:100E0000310541F42DB73EB740910D0450910E04C9
:100E1000241B350BE0911004F0911104E217F30745
:100E2000A0F42E1B3F0B2817390778F0AC014E5F5A
:100E30005F4F2417350748F04E0F5F1F5093110482
:100E4000409310048193919302C0E0E0F0E0CF0161
:100E5000DF91CF9108950F931F93CF93DF93009766
:100E600009F48CC0FC0132971382128200911204A3
:100E7000109113040115110581F420813181820F35
:100E8000931F20911004309111042817390779F528
:100E9000F0931104E093100471C0D80140E050E0D9
:100EA000AE17BF0750F412962D913C911397AD01E8
:100EB0002115310509F1D901F3CF9D01DA01338301
:100EC000228360817181860F971F8217930769F4CF
:100ED000EC0128813981260F371F2E5F3F4F318368
:100EE00020838A819B8193838283452B29F4F0930D
:100EF0001304E093120442C01396FC93EE931297EE
:100F0000ED01499159919E01240F351FE217F30716
:100F100071F480819181840F951F029611969C93A4
:100F20008E938281938113969C938E931297E0E027
:100F3000F0E0D80112968D919C911397009719F0CB
:100F4000F8018C01F6CF8D919C9198012E5F3F4F57
:100F5000820F931F20911004309111042817390734
:100F600069F4309729F4109213041092120402C00D
:100F7000138212821093110400931004DF91CF9119
:0A0F80001F910F910895F894FFCF20
:100F8A000000000000000000000000000000000057
:100F9A000000000000000000000103040500010237
:100FAA000000000000000000000103040500010227
:100FBA000001030607000102000000000000000013
:100FCA000000000000000000000103060700010203
:100FDA0000010304050001020001030607000102E3
:100FEA0000000000000000000000000000000000F7
:100FFA00002B002A00290000000000000000000168
:10100A002B002A0029000000000000000000022B2B
:10101A00002A0029000000000000000000032B0045
:10102A002A002900B000B100B300B400042B002A42
:10103A000029000000000000000000052B002A0023
:10104A0029004400450047004800062B002A0029D1
:10105A00004400450047000000072B002A00290031
:10106A00000000000000000000250024002300000A
:10107A000000000000000001250024002300800079
:10108A0081008800000002250024002300800081DE
:10109A000088008A0003250024002300B000B10064
:1010AA00B300000004250024002300000000000013
:1010BA0000000005250024002300000000000000B5
:1010CA0000000204FF03F903F303EE03E803E1035C
:1010DA00DD03D503CE03C703C103BC03B603B003C4
:1010EA00AB03A5039F039C03970391038D03890315
:1010FA0083037C03760370036B03650360035A035F
:10110A00540350034A0344033E03370331032D03B8
:10111A00270320031B0314030F030D030A0304030D
:10112A000103FE02FA02F502EF02E902E602E00218
:10113A00DB02D702D302D002CA02C402BE020500F1
:10114A00010304060501020305060501020405065A
:10115A00020204030203040302030404030405064F
:10116A00050002030506020406050001020506053C
:10117A00000104050604020304060302040602022F
:10118A000402040505000204050602020301040420
:10119A00020405060600010203050604000405060A
:1011AA0006000103040506050102030406030304FD
:1011BA0006050203040506060001020304060500EB
:1011CA0001030406050102030506050102040506DA
:1011DA0003010305050102030405050102030405D1
:1011EA0004030405060500020305060400010405BC
:1011FA0005000103050605000104050606000102B3
:10120A0003040505000102040503000204030304A4
:10121A00050500020405060401020304020405058B
:10122A00010204050605000203040504000405067C
:10123A00050003040506050102030406040003046D
:10124A000505020304050606000102040506060058
:10125A000102030506070001020304050603000153
:10126A00020600020304050605000203050604013E
:10127A000205060500010203060500010304060231
:10128A000102060001020304050000140420000004
:00000001FF
