:100000000C943C000C9459000C9459000C94590029
:100010000C9459000C9459000C9459000C945900FC
:100020000C9459000C9459000C9459000C945900EC
:100030000C9459000C9459000C9459000C945900DC
:100040000C9459000C9459000C9459000C945900CC
:100050000C9459000C9459000C9459000C945900BC
:100060000C9459000C945900FF0502060506080679
:100070000B060E061106140611241FBECFEFD8E0A2
:10008000DEBFCDBF14E0A0E0B1E0E0EEF9E102C0D8
:1000900005900D92A033B107D9F724E0A0E3B4E0B6
:1000A00001C01D92AA33B207E1F70E94C8060C9462
:1000B000EE0C0C940000CF93C82F8A3019F48DE019
:1000C0000E945B008091C00085FFFCCFC093C600FA
:1000D00080E090E0CF9108958091C00087FFFCCF31
:1000E0008091C60090E008951092C50087E6809345
:1000F000C400E0ECF0E080818D7F808386E0809317
:10010000C20088E18093C100E4E3F4E080E091E084
:1001100093838283918380830895CF92DF92EF92BD
:10012000FF926B017C0120E034E244EF56E40E9430
:100130008408181654F420E034E244EF5AE4C7016E
:10014000B6010E9462071816C4F420E034E244EFBE
:1001500055E4C701B6010E94840818169CF02BE7ED
:1001600034E144EF51E4C701B6010E948408181637
:1001700074F060E070E0CB010EC060E070E080E8F9
:100180009FE309C060E070E080E893E404C060E0B1
:1001900070E080E894E4FF90EF90DF90CF900895B6
:1001A000CF92DF92EF92FF926B017C0120E034E26C
:1001B00044EF56E40E948408181654F420E034E218
:1001C00044EF5AE4C701B6010E9462071816B4F45E
:1001D00020E034E244EF55E4C701B6010E948408F0
:1001E000181674F02BE734E144EF51E4C701B6016F
:1001F0000E948408181634F080E005C081E003C036
:1002000084E001C085E0FF90EF90DF90CF900895EB
:10021000CF92DF92EF92FF926B017C0120E034E2FB
:1002200044EF56E40E948408181654F420E034E2A7
:1002300044EF5AE4C701B6010E9462071816B4F4ED
:1002400020E034E244EF55E4C701B6010E9484087F
:10025000181674F02BE734E144EF51E4C701B601FE
:100260000E948408181634F080E005C081E003C0C5
:1002700086E001C087E0FF90EF90DF90CF90089577
:10028000CF92DF92EF92FF926B017C010E948D0072
:100290009B01AC010E94F606A70196010E94890805
:1002A0009B01AC0160E074E284E79BE40E94670775
:1002B00020E030E040E85FE30E94F5060E94D907A5
:1002C000CB01FF90EF90DF90CF9008956F927F92D7
:1002D0009F92AF92BF92CF92DF92EF92FF920F93D5
:1002E0001F93CF93DF931F92CDB7DEB7282F6A01FC
:1002F0007B0129830E94DB032981022F10E06FE03C
:10030000269FA0011124CA0184579E4F3C01DC01A5
:1003100017968D919C911897892B99F461E070E064
:10032000822F0F90DF91CF911F910F91FF90EF904F
:10033000DF90CF90BF90AF909F907F906F900C9484
:100340005E04C701B60129830E94D000982E29813E
:10035000882309F44CC1273030F4253008F077C0E9
:10036000233051F044C1293008F441C12B3008F446
:10037000CEC02B3009F03BC18FE0809F9001819F60
:10038000300D1124F901E457FE4F3F01A384B484DA
:10039000C701B6010E944001D5018C9389E0809F7E
:1003A000F001819FF00D1124E25FFE4F2181D30106
:1003B00017960D911C911897D8014C9181E090E00F
:1003C000BC0102C0660F771F2A95E2F79B01242B20
:1003D0002C932081D30117960D911C911897D80169
:1003E0004C91BC0102C0660F771F2A95E2F79B0172
:1003F0002095309524232C932381D30117960D91BA
:100400001C911897D8014C91BC0102C0660F771F50
:100410002A95E2F79B01242B2C933481D301179664
:10042000ED91FC911897208102C0880F991F3A9591
:10043000E2F7809590958223808319960D911C9107
:100440001A97C701B6010E940801F801CFC0D30175
:100450001B96AD90BC901C97C701B6010E9440014D
:10046000F501808389E0809FF001819FF00D1124C8
:10047000E25FFE4F8181D30117960D911C91189771
:10048000D8014C9121E030E0B90102C0660F771F1E
:100490008A95E2F7CB01842B8C938081D301179648
:1004A0000D911C911897D8014C91B90102C0660FAB
:1004B000771F8A95E2F7CB018095909584238C93E2
:1004C0008381D30117960D911C911897D8014C91F7
:1004D000B90102C0660F771F8A95E2F7CB01842B22
:1004E0008C939481D3011796ED91FC91189780819C
:1004F00002C0220F331F9A95E2F7209530952823EA
:1005000020831996ED91FC911A97908270C0F301A7
:10051000A384B484C701B6010E944001D5018C9325
:10052000D3011996ED91FC911A97908289E0809FF2
:10053000F001819FF00D1124E25FFE4F218117969B
:100540000D911C911897D8014C9181E090E0BC016D
:1005500002C0660F771F2A95E2F79B012095309520
:1005600024232C932081D30117960D911C91189769
:10057000D8014C91BC0102C0660F771F2A95E2F7A3
:100580009B012095309524232C932281D301199629
:100590000D911C911A97D8014C91BC0102C0660FB5
:1005A000771F2A95E2F79B01242B2C932381D301FB
:1005B00017960D911C911897D8014C91BC0102C05F
:1005C000660F771F2A95E2F79B01242B2C93348129
:1005D000D3011796ED91FC911897208102C0880FE6
:1005E000991F3A95E2F780959095822380830F902A
:1005F000DF91CF911F910F91FF90EF90DF90CF90FF
:10060000BF90AF909F907F906F900895FF920F934F
:100610001F93CF93DF93C82FF62E0E94DB030C2F7E
:1006200010E08FE0C89FF0011124E457FE4F87814E
:100630009085892B59F4D0E88081DF1518F461E0AA
:1006400070E002C060E070E00E945E04C73030F4E9
:10065000C53060F4C33009F092C008C0C93008F456
:100660008EC0CB3040F1CB3009F089C089E0809F4B
:10067000D001819FB00D1124A25FBE4F2C918FE05D
:10068000809FF001819FF00D1124E457FE4F4781B8
:100690005085EA01688181E090E0EC0102C0CC0F56
:1006A000DD1F2A95E2F79E01262BEA012883119689
:1006B0002C91119737C089E0809FD001819FB00DA8
:1006C0001124A25FBE4F12962C9112978FE0809F4B
:1006D000F001819FF00D1124E457FE4F41855285B2
:1006E000EA01688181E090E0EC0102C0CC0FDD1FDF
:1006F0002A95E2F79E01262BEA01288311962C9178
:10070000119747815085EA016881EC0102C0CC0F46
:10071000DD1F2A95E2F79E01209530952623EA01F8
:1007200028832C9147815085EA016881EC0102C041
:10073000CC0FDD1F2A95E2F79E01262BEA012883C4
:1007400013962C91139747815085EA016881EC013B
:1007500002C0CC0FDD1F2A95E2F79E01209530954F
:100760002623EA01288314963C910780F085E02D2A
:10077000208101C0880F3A95EAF7822B80838FE0B1
:10078000809FF001819FF00D1124E457FE4FA18559
:10079000B28582E08C93A585B685109711F0FC9206
:1007A00004C00384F485E02DF082DF91CF911F9186
:1007B0000F91FF9008952FE0829FC0011124FC014A
:1007C000E457FE4F30810380F481E02D208181E0E9
:1007D00090E001C0880F3A95EAF7822B8083089554
:1007E0002FE0829FC0011124FC01E457FE4F3081AD
:1007F0000180F281E02D208181E090E001C0880F2E
:100800003A95EAF7822B808308952FE0829FC001FA
:100810001124FC01E457FE4F30810180F281E02D6C
:10082000208181E090E001C0880F3A95EAF78227A5
:10083000808308952FE0829FC0011124FC01E457BA
:10084000FE4FA581B6818C91208190E002C09595E4
:1008500087952A95E2F78095817008952FE0829F11
:10086000C0011124FC01E457FE4F30810380F48164
:10087000E02D208181E090E002C0880F991F3A9519
:10088000E2F7809590958223808308952FE0829FE0
:10089000C0011124FC01E457FE4F30810180F28138
:1008A000E02D208181E090E002C0880F991F3A95E9
:1008B000E2F78095909582238083089590E02FE061
:1008C000289FF001299FF00D1124E457FE4F30813D
:1008D0000180F281E02D208181E090E002C0880F4C
:1008E000991F3A95E2F7672B11F0822B03C0809590
:1008F00090958223808308950F931F93CF93DF9366
:10090000182F092F84E090E00E94F608EC0118836C
:100910000983812F0E94DB0381E090E09B838A831F
:10092000812F0E94F003CE01DF91CF911F910F9193
:10093000089521E030E0FC013383228380810E940E
:10094000F00381E090E00895FC011382128280811F
:100950000E94460481E090E00895FC0122813381E9
:10096000232B11F40C9499040C94A404CF93DF93DB
:10097000EC010E9499042FEF83ED90E32150804019
:100980009040E1F700C00000CE010E94A4042FEFC8
:1009900083ED90E3215080409040E1F700C00000DB
:1009A00081E090E0DF91CF9108950C948B09CF9373
:1009B000DF93C82FD62F9091810092609093810091
:1009C0000E94DB038D2F0E942E0461E070E08C2FCB
:1009D0000E945E0485E38A95F1F700009FE09C9FEA
:1009E000F0011124E457FE4F40810180F281E02D97
:1009F000808121E030E002C0220F331F4A95E2F7E8
:100A000020953095282320836D2F70E0969FF0016C
:100A1000979FF00D1124E457FE4FA581B6818C916C
:100A2000208190E002C0959587952A95E2F780FF96
:100A3000F6CF10928500109284008FE0869FF0011F
:100A4000879FF00D1124E457FE4F8C91208190E098
:100A500002C0959587952A95E2F780FDF6CF8091A3
:100A600084009091850064E770E00E94DB06CB0172
:100A7000DF91CF9108958F929F92AF92BF92CF92C4
:100A8000DF92EF92FF920F931F93CF93DF93CDB737
:100A9000DEB7B82ED62EF42E122F8DE090E00E94F5
:100AA000F6084C01FC01B0828B2D0E94DB038B2DDC
:100AB0000E94F003F401D1828D2D0E94DB038D2D65
:100AC0000E94F003F401F2828F2D0E94DB038F2D30
:100AD0000E94F003F4011383812F0E94DB03812F16
:100AE0000E94F003F4010483802F0E94DB03802F17
:100AF0000E94F003F401E5828E2D0E94DB038E2D0F
:100B00000E94F003F401C6828C2D0E94DB038C2D21
:100B10000E94F003F401A7828A2D0E94DB038A2D34
:100B20000E94F003F40114868F859889A989BA89F7
:100B300080879187A287B387C401DF91CF911F91EE
:100B40000F91FF90EF90DF90CF90BF90AF909F906C
:100B50008F900895FC01648708952FEF89E698E14E
:100B6000215080409040E1F700C000000895CF93ED
:100B7000DF93EC0188810E94F00389810E94F003D9
:100B80008A810E94F0038B810E94F0038C810E9475
:100B9000F0038D810E94F0038E810E94F0038F810B
:100BA000DF91CF910C94F003EF92FF920F931F937C
:100BB000CF93DF938C016B3514F0665002C06A331B
:100BC0000CF06750C0EDC60FEE24E394F12CCC0F6F
:100BD000DD0BC25ADD4FE881F981808190E08E15EE
:100BE0009F0554F1EE0DFF1DE0818E2F90E08830BF
:100BF0009105F0F4FC01EC5CFF4F0C94EF06F8015A
:100C0000808114C0F801818111C0F80182810EC079
:100C1000F80183810BC0F801848108C0F801858147
:100C200005C0F801868102C0F80187810E94460450
:100C3000FFEFEF1AFF0ACFCF20E030E0A901F80163
:100C400060857185828593850E948408181694F4C6
:100C5000FFEF29E688E1F15020408040E1F700C035
:100C60000000C801DF91CF911F910F91FF90EF908D
:100C70000C94B705DF91CF911F910F91FF90EF90EA
:100C80000895EF92FF921F93CF93DF93EC017B01C6
:100C9000672BE9F010E0F701E10FF11D6081662399
:100CA00099F0CE01603261F40E94B7052FEF89E61A
:100CB00098E1215080409040E1F700C0000002C060
:100CC0000E94D4051F5FE7CF8C858111E3CFDF91B0
:100CD000CF911F91FF90EF9008950C948B091F9373
:100CE000CF93DF93182F85E090E00E94F608EC0187
:100CF0001883812F0E942E04812F0E94F00381E02F
:100D000090E09A838983CE01DF91CF911F9108955E
:100D1000FC01748363830895FC01728361830895E9
:100D2000CF93DF93EC012FEF89EF90E021508040CB
:100D30009040E1F700C0000088810E941A048823D7
:100D4000B9F089819A81892B49F4EB81FC8109955D
:100D500088810E941A048111FBCF0AC088810E94F9
:100D60001A048111FBCFEB81FC81DF91CF910994B3
:100D7000DF91CF9108952FEF39EF40E021503040BF
:100D80004040E1F700C00000FC0180810C941A048F
:100D90000E947400CBE2D4E069E088E00E94D704AE
:100DA0009F938F93DF93CF930E94230A0F900F900E
:100DB0000F900F90F1CFAA1BBB1B51E107C0AA1FD8
:100DC000BB1FA617B70710F0A61BB70B881F991FEC
:100DD0005A95A9F780959095BC01CD010895EE0F25
:100DE000FF1F0590F491E02D09945058BB27AA27C6
:100DF0000E940D070C944A080E943C0838F00E949B
:100E0000430820F039F49F3F19F426F40C94390874
:100E10000EF4E095E7FB0C943308E92F0E945B0881
:100E200058F3BA17620773078407950720F079F41F
:100E3000A6F50C947D080EF4E0950B2EBA2FA02D8C
:100E40000B01B90190010C01CA01A0011124FF2777
:100E5000591B99F0593F50F4503E68F11A16F04072
:100E6000A22F232F342F4427585FF3CF4695379571
:100E70002795A795F0405395C9F77EF41F16BA0B36
:100E8000620B730B840BBAF09150A1F0FF0FBB1FE4
:100E9000661F771F881FC2F70EC0BA0F621F731F2D
:100EA000841F48F4879577956795B795F7959E3F8A
:100EB00008F0B0CF9395880F08F09927EE0F97951B
:100EC000879508950E940F0808F481E008950E9414
:100ED0007B070C944A080E94430858F00E943C0883
:100EE00040F029F45F3F29F00C94330851110C9421
:100EF0007E080C9439080E945B0868F39923B1F3CB
:100F0000552391F3951B550BBB27AA27621773072F
:100F1000840738F09F5F5F4F220F331F441FAA1FC3
:100F2000A9F335D00E2E3AF0E0E832D0915050407F
:100F3000E695001CCAF72BD0FE2F29D0660F771F2D
:100F4000881FBB1F261737074807AB07B0E809F013
:100F5000BB0B802DBF01FF2793585F4F3AF09E3F98
:100F6000510578F00C9433080C947E085F3FE4F34D
:100F7000983ED4F3869577956795B795F7959F5FDB
:100F8000C9F7880F911D9695879597F90895E1E027
:100F9000660F771F881FBB1F621773078407BA0786
:100FA00020F0621B730B840BBA0BEE1F88F7E095E1
:100FB00008950E94E0076894B1110C947E0808958A
:100FC0000E94630888F09F5798F0B92F9927B7516E
:100FD000B0F0E1F0660F771F881F991F1AF0BA95DD
:100FE000C9F714C0B13091F00E947D08B1E00895B6
:100FF0000C947D08672F782F8827B85F39F0B93FA8
:10100000CCF3869577956795B395D9F73EF490958F
:101010008095709561957F4F8F4F9F4F0895990FE1
:101020000008550FAA0BE0E8FEEF16161706E807B2
:10103000F907C0F012161306E407F50798F0621BD3
:10104000730B840B950B39F40A2661F0232B242BA8
:10105000252B21F408950A2609F4A140A6958FEFC7
:10106000811D811D089597F99F6780E870E060E019
:1010700008959FEF80EC089500240A941616170631
:1010800018060906089500240A9412161306140679
:1010900005060895092E0394000C11F4882352F0DC
:1010A000BB0F40F4BF2B11F460FF04C06F5F7F4F94
:1010B0008F4F9F4F089557FD9058440F551F59F07B
:1010C0005F3F71F04795880F97FB991F61F09F3F35
:1010D00079F087950895121613061406551FF2CF5E
:1010E0004695F1DF08C0161617061806991FF1CFAE
:1010F00086957105610508940895E894BB276627D5
:101100007727CB0197F908950E940F0808F48FEF15
:1011100008950E949C080C944A080E943C0838F0EC
:101120000E94430820F0952311F00C9433080C948E
:10113000390811240C947E080E945B0870F3959F77
:10114000C1F3950F50E0551F629FF001729FBB27BE
:10115000F00DB11D639FAA27F00DB11DAA1F649F5A
:101160006627B00DA11D661F829F2227B00DA11D0D
:10117000621F739FB00DA11D621F839FA00D611D93
:10118000221F749F3327A00D611D231F849F600DB4
:10119000211D822F762F6A2F11249F5750409AF0DD
:1011A000F1F088234AF0EE0FFF1FBB1F661F771F69
:1011B000881F91505040A9F79E3F510580F00C9434
:1011C00033080C947E085F3FE4F3983ED4F3869591
:1011D00077956795B795F795E7959F5FC1F7FE2BD4
:1011E000880F911D9695879597F90895CF93DF9372
:1011F0008230910510F482E090E0E0913204F091A9
:10120000330420E030E0C0E0D0E0309711F14081BD
:10121000518148175907C0F04817590761F4828176
:101220009381209719F09B838A832BC0909333047A
:101230008093320426C02115310519F04217530757
:1012400018F49A01BE01DF01EF010280F381E02D65
:10125000DCCF2115310509F1281B390B243031056C
:1012600090F412968D919C9113976115710521F060
:10127000FB019383828304C09093330480933204F0
:10128000FD01329644C0FD01E20FF31F819391935B
:10129000225031092D933C933AC020913004309173
:1012A0003104232B41F420912704309128043093FA
:1012B0003104209330042091250430912604211517
:1012C000310541F42DB73EB74091290450912A04CD
:1012D000241B350BE0913004F0913104E217F30741
:1012E000A0F42E1B3F0B2817390778F0AC014E5F96
:1012F0005F4F2417350748F04E0F5F1F509331049E
:10130000409330048193919302C0E0E0F0E0CF017C
:10131000DF91CF9108950F931F93CF93DF930097A1
:1013200009F48CC0FC0132971382128200913204BE
:10133000109133040115110581F420813181820F50
:10134000931F20913004309131042817390779F523
:10135000F0933104E093300471C0D80140E050E0D4
:10136000AE17BF0750F412962D913C911397AD0123
:101370002115310509F1D901F3CF9D01DA0133833C
:10138000228360817181860F971F8217930769F40A
:10139000EC0128813981260F371F2E5F3F4F3183A3
:1013A00020838A819B8193838283452B29F4F09348
:1013B0003304E093320442C01396FC93EE931297E9
:1013C000ED01499159919E01240F351FE217F30752
:1013D00071F480819181840F951F029611969C93E0
:1013E0008E938281938113969C938E931297E0E063
:1013F000F0E0D80112968D919C911397009719F007
:10140000F8018C01F6CF8D919C9198012E5F3F4F92
:10141000820F931F2091300430913104281739072F
:1014200069F4309729F4109233041092320402C008
:10143000138212821093310400933004DF91CF9114
:101440001F910F910895A0E0B0E0E9E2FAE00C945A
:10145000C70CAE014B5F5F4FFA0161917191AF0113
:1014600080913604909137040E94390AE2E00C948E
:10147000E30CACE0B0E0EFE3FAE00C94B70C7C01D5
:101480006B018A01FC0117821682838181FFBDC135
:10149000CE0101964C01F7019381F60193FD8591F0
:1014A00093FF81916F01882309F4ABC1853239F430
:1014B00093FD859193FF81916F01853229F4B701E6
:1014C00090E00E94210CE7CF512C312C20E02032FB
:1014D000A0F48B3269F030F4803259F0833269F431
:1014E00020612CC08D3239F0803339F4216026C060
:1014F0002260246023C0286021C027FD27C030ED72
:10150000380F3A3078F426FF06C0FAE05F9E300DBF
:101510001124532E13C08AE0389E300D1124332E2F
:1015200020620CC08E3221F426FD6BC1206406C0FF
:101530008C3611F4206802C0883641F4F60193FD20
:10154000859193FF81916F018111C1CF982F9F7D6C
:101550009554933028F40C5F1F4FFFE3F9830DC0BF
:10156000833631F0833771F0833509F05BC022C0D8
:10157000F801808189830E5F1F4F44244394512CCE
:10158000540115C03801F2E06F0E711CF801A08003
:10159000B18026FF03C0652D70E002C06FEF7FEFC2
:1015A000C5012C870E94160C2C0183012C852F77F6
:1015B000222E17C03801F2E06F0E711CF801A080D6
:1015C000B18026FF03C0652D70E002C06FEF7FEF92
:1015D000C5012C870E940B0C2C012C852068222E23
:1015E000830123FC1BC0832D90E048165906B0F4FC
:1015F000B70180E290E00E94210C3A94F4CFF5010B
:1016000027FC859127FE81915F01B70190E00E9440
:10161000210C31103A94F1E04F1A51084114510451
:1016200071F7E5C0843611F0893639F5F80127FFE6
:1016300007C060817181828193810C5F1F4F08C058
:1016400060817181072E000C880B990B0E5F1F4F74
:101650002F76722E97FF09C09095809570956195B1
:101660007F4F8F4F9F4F2068722E2AE030E0A401F9
:101670000E94590CA82EA81844C0853729F42F7E43
:10168000B22E2AE030E025C0F22FF97FBF2E8F3630
:10169000C1F018F4883579F0B4C0803719F0883774
:1016A00021F0AFC02F2F2061B22EB4FE0DC08B2DC4
:1016B0008460B82E09C024FF0AC09F2F9660B92EFF
:1016C00006C028E030E005C020E130E002C020E1A3
:1016D00032E0F801B7FE07C0608171818281938199
:1016E0000C5F1F4F06C06081718180E090E00E5F4B
:1016F0001F4FA4010E94590CA82EA818FB2DFF779C
:101700007F2E76FE0BC0372D3E7FA51450F474FE5D
:101710000AC072FC08C0372D3E7E05C0BA2C372D9A
:1017200003C0BA2C01C0B52C34FF0DC0FE01EA0D78
:10173000F11D8081803311F4397E09C032FF06C06B
:10174000B394B39404C0832F867809F0B39433FD27
:1017500013C030FF06C05A2CB31418F4530C5B1896
:10176000B32CB31468F4B70180E290E03C870E9488
:10177000210CB3943C85F5CFB31410F43B1801C091
:10178000312C34FF12C0B70180E390E03C870E9407
:10179000210C3C8532FF17C031FD03C088E790E083
:1017A00002C088E590E0B7010CC0832F867859F01D
:1017B00031FF02C08BE201C080E237FD8DE2B7014C
:1017C00090E00E94210CA51438F4B70180E390E06A
:1017D0000E94210C5A94F7CFAA94F401EA0DF11D4E
:1017E0008081B70190E00E94210CA110F5CF332039
:1017F00009F451CEB70180E290E00E94210C3A94A6
:10180000F6CFF7018681978102C08FEF9FEF2C966C
:10181000E2E10C94D30CFC01059061507040011082
:10182000D8F7809590958E0F9F1F0895FC01615009
:10183000704001900110D8F7809590958E0F9F1FF2
:1018400008950F931F93CF93DF93FB01238121FD15
:1018500003C08FEF9FEF28C022FF16C0468157813B
:10186000248135814217530744F4A081B1819D0141
:101870002F5F3F4F318320838C93268137812F5FE9
:101880003F4F3783268310C0EB01092F182F0084A8
:10189000F185E02D0995892BE1F68E819F810196D6
:1018A0009F838E83812F902FDF91CF911F910F9176
:1018B0000895FA01AA27283051F1203181F1E894E6
:1018C0006F936E7F6E5F7F4F8F4F9F4FAF4FB1E033
:1018D0003ED0B4E03CD0670F781F891F9A1FA11D2E
:1018E000680F791F8A1F911DA11D6A0F711D811D2F
:1018F000911DA11D20D009F468943F912AE0269FF4
:1019000011243019305D3193DEF6CF010895462F52
:101910004770405D4193B3E00FD0C9F7F6CF462F33
:101920004F70405D4A3318F0495D31FD405241939C
:1019300002D0A9F7EACFB4E0A69597958795779559
:101940006795BA95C9F700976105710508959B01E0
:10195000AC010A2E06945795479537952795BA9569
:10196000C9F7620F731F841F951FA01D08952F9242
:101970003F924F925F926F927F928F929F92AF921F
:10198000BF92CF92DF92EF92FF920F931F93CF936C
:10199000DF93CDB7DEB7CA1BDB0B0FB6F894DEBF03
:1019A0000FBECDBF09942A88398848885F846E8429
:1019B0007D848C849B84AA84B984C884DF80EE8073
:1019C000FD800C811B81AA81B981CE0FD11D0FB67C
:1019D000F894DEBF0FBECDBFED010895F894FFCFA0
:1019E00000000003000000005B006C00000000002D
:1019F00000000000000000000000000000000000E7
:101A000000000000000000000000010304050001C8
:101A100002000000000000000000000001030405B7
:101A2000000102000001030607000102000000009F
:101A300000000000000000000000000000000000A6
:101A4000010306070001020400010304050001026E
:101A5000040001030607000102000000000000006E
:101A6000000000000000000000000000002B002A21
:101A70000029000000000000000000012B002A00E7
:101A800029000000000000000000022B002A0029AD
:101A9000000000000000000000032B002A002900C5
:101AA000B000B100B300B400042B002A00290000EC
:101AB00000000000000000052B002A00290044005F
:101AC000450047004800062B002A00290044004535
:101AD0000047000000072B002A002900000000003A
:101AE000000000000025002400230000000000008A
:101AF00000000001250024002300800081008800F0
:101B00000000022500240023008000810088008A54
:101B10000003250024002300B000B100B300000042
:101B20000425002400230000000000000000000540
:101B300025002400230000000000000000001E0417
:101B40001B0415040F040A040404FD03F903F10344
:101B5000EA03E303DD03D803D203CC03C703C103C5
:101B6000BB03B803B303AD03A903A5039F03980305
:101B700092038C03870381037C03760370036C0359
:101B8000660360035A0353034D03490343033C03B5
:101B9000370330032B032903260320031D031A03F5
:101BA000160311030B0305030203FC02F702F30201
:101BB000EF02EC02E602E002DA020500010304068D
:101BC00005010203050605010204050602020403DD
:101BD00002030403020304040304050605000203D0
:101BE00005060204060500010205060500010405BC
:101BF00006040203040603020406020204020405AA
:101C0000050002040506020203010404020405069D
:101C10000600010203050604000405060600010390
:101C20000405060501020304060303040605020376
:101C3000040506060001020304060500010304066C
:101C4000050102030506050102040506030103055B
:101C5000050102030405050102030405040304054C
:101C60000605000203050604000104050500010342
:101C7000050605000104050606000102030405052A
:101C80000001020405030002040303040505000229
:101C9000040506040102030402040505010204050B
:101CA00006050002030405040004050605000304FC
:101CB00005060501020304060400030405050203EA
:101CC00004050606000102040506060001020305DC
:101CD00006070001020304050603000102060002D4
:101CE00003040506050002030506040102050605B6
:101CF00000010203060500010304060201020600BA
:101D0000010203040500003A04200025640A0000D3
:00000001FF
